S00B00005350492E737265632D
S11300000C942A000C943F000C943F000C943F0085
S11300100C943F000C943F000C943F000C943F0060
S11300200C943F000C943F000C943F000C943F0050
S11300300C9441000C943F000C943F000C943F003E
S11300400C943F000C943F000C943F000C943F0030
S11300500C943F0011241FBECFE5D8E0DEBFCDBF16
S113006010E0A0E6B0E0E4E2F1E002C005900D92F9
S1130070A236B107D9F70E9453000C9490000C9457
S113008000001F920F920FB60F9211248F9380914C
S113009060008F5F809360008FB98F910F900FBEC7
S11300A00F901F90189587B3806187BB88B38F7EAC
S11300B088BB60E080E00E9467000E948C008FB7DC
S11300C080688FBF809160000E948800FFCF8111FB
S11300D00AC087B3806287BB87B3806887BB8DB152
S11300E080618DB908C0813031F48DB18F7E8DB9B6
S11300F087B3806487BB8DB18F7D8DB98DB18064EA
S11301008DB98DB18C7F8DB98DB1682B6DB9089582
S11301108FB9779BFECF08958DB180688DB908950E
S1070120F894FFCF7D
S10501240500D0
S9030000FC
