:100000000C942D000C9482010C9482010C948201BA
:100010000C9482010C9482010C9482010C94820154
:100020000C9482010C9482010C9482010C94820144
:100030000C9482010C9482010C9482010C94820134
:100040000C9482010C9482010C9482010C94820124
:100050000C94820100600061800011241FBECFE576
:10006000D8E0DEBFCDBFE4E5F0E040E017C0B591D9
:10007000A59135912591059107FD0CC0959185912C
:10008000EF01F92FE82F05900D92A217B307D9F7CA
:10009000FE0104C01D92A217B307E1F7E935F4078A
:0E00A00031F70E945C000C945500F894FFCFDD
:0A00AE00322E35560000000000005D
:1000B800CF93DF93CDB7DEB72A970FB6F894DEBF9C
:1000C8000FBECDBF0E94F60066E081E00E946D0180
:1000D80080E00E94140180E00E9441010E947A01A0
:1000E8000E9475010E947E018FB780688FBF0E94B1
:1000F80075019C010F2EFEEACF2EF0E0DF2EF0E016
:10010800EF2EF02D85E0F601DE0111967E2D0E947E
:100118006001FE01369685E0DF011D928A95E9F7B8
:100128002F5F31402930310510F70E945301CE016D
:0801380001960E942B01DBCFB0
:1001400098B39F70282F207F922B98BB98B39E7FE7
:1001500098BB98B3926098BB000098B39D7F98BB02
:1001600032E43A95F1F700C028B330E1839FC00133
:100170001124922F9F70892B88BB88B3826088BB23
:10018000000088B38D7F88BB83EF91E00197F1F782
:0601900000C0000008950C
:1001960098B39F70282F207F922B98BB98B39160BD
:1001A60098BB98B3926098BB000098B39D7F98BBAC
:1001B60032E43A95F1F700C028B330E1839FC001DD
:1001C6001124922F9F70892B88BB88B3826088BBCD
:1001D600000088B38D7F88BB83EF91E00197F1F72C
:0601E60000C000000895B6
:1001EC008FEF87BB87E893E10197F1F700C0000020
:1001FC0082E00E94A00088E20E94A0008CE00E9495
:10020C00A00086E00E94A00081E00E94A00083EF85
:0C021C0091E00197F1F700C00000089588
:1002280091E09093600090B79F7790BF90B79F7BC5
:1002380090BF90B79F7D90BF20B730E2839FC001E9
:0E0248001124822B80BF86B1806286B9089592
:100256000F931F93CF93DF938C01C0E0D0E003C0D0
:100266000E94CB002196F801EC0FFD1F80818111C1
:0C027600F7CFDF91CF911F910F910895F9
:1002820087709AB321E030E0082E02C0220F331F9C
:100292000A94E2F7209529232ABB97B1987F892BEC
:0402A20087B908957B
:1002A60081E00E94A00083EF91E00197F1F700C082
:0A02B600000080E80E94A0000895F7
:1002C000992777FD05C005900D920197E1F70895F4
:0A02D00001900D920197E1F70895E7
:1002DA00606866B98295880F880F807C87B908950F
:0A02EA003699FECF84B195B1089556
:0802F40086B1806486B908950B
:0802FC0086B1886086B90895FF
:040304000C94000055
:00000001FF
