:100000000C942A000C9434000C9434000C943400AA
:100010000C9434000C9434000C9434000C94340090
:100020000C9434000C9434000C9434000C94340080
:100030000C9434000C9434000C9434000C94340070
:100040000C9434000C9434000C9434000C94340060
:100050000C94340011241FBECFE5D8E0DEBFCDBF25
:100060000E9451000C9457000C9400008BB18BB986
:1000700080B5806880BD80B580BD80B5866080BD5C
:100080008BB18BB980B58F7780BD83E289B984E06D
:1000900080BD8AB188618AB908955D9BFECF8CB915
:1000A00008950E9436008CE30E944D00FFCFF89423
:0200B000FFCF80
:00000001FF
