S00C0000554152542E73726563DC
S11300000C942A000C9434000C9434000C943400A6
S11300100C9434000C9434000C9434000C9434008C
S11300200C9434000C9434000C9434000C9434007C
S11300300C9434000C9434000C9434000C9434006C
S11300400C9434000C9434000C9434000C9434005C
S11300500C94340011241FBECFE5D8E0DEBFCDBF21
S11300600E9452000C945C000C9400008BB18BB97C
S113007080B5806880BD80B580BD80B5866080BD58
S11300808BB18BB980B58F7780BD83E289B984E069
S113009080BD8AB188618AB908955F9BFECF8CB117
S11300A090E008950E9436000E944D00CC97E1F73D
S10F00B081E08ABB8BBBF8CFF894FFCF33
S9030000FC
