:100000000C942A000C948D000C948D000C948D009F
:100010000C948D000C948D000C948D000C948D002C
:100020000C948D000C948D000C9465000C9454007D
:100030000C948D000C948D000C948D000C948D000C
:100040000C948D000C948D000C948D000C948D00FC
:100050000C948D0011241FBECFE5D8E0DEBFCDBFCC
:10006000E4E5F0E040E017C0B591A5913591259108
:10007000059107FD0CC095918591EF01F92FE82FAF
:1000800005900D92A217B307D9F7FE0104C01D9287
:10009000A217B307E1F7E435F40731F70E947600C1
:0800A0000C945200F894FFCF0C
:1000A8001F920F920FB60F9211248F938FEF84BB7C
:1000B80085B3809585BB8F910F900FBE0F901F90D1
:0200C800189589
:1000CA001F920F920FB60F9211248F938FEF81BB5D
:1000DA0082B3809582BB8F910F900FBE0F901F90B5
:0200EA00189567
:1000EC0088E087BB8FB780688FBF68E081E00E9493
:1000FC008A0080E10E9486008FE70E948F00FFCF6C
:08010C0093B7892B83BF08950E
:06011400862B83BF089555
:04011A000C94000041
:04011E008CBF0895F5
:00000001FF
