:100000000C942A000C94F1000C94F1000C94F10073
:100010000C94F1000C94F1000C94F1000C94F1009C
:100020000C94F1000C94F1000C94F1000C94F1008C
:100030000C94F1000C94F1000C94F1000C94F1007C
:100040000C94F1000C94F1000C94F1000C94F1006C
:100050000C94F10011241FBECFE5D8E0DEBFCDBF68
:0C0060000E9436000C943400F894FFCF8E
:10006C0060E089E390E00E94E8006FEF86E390E0A7
:10007C000E94E8006FEF83E390E00E94E80040E00C
:10008C0060E080E390E00E94A00045E061E080E346
:10009C0090E00E94A0006EE586E390E00E94EE00E6
:1000AC0089E390E00E94EB00682F83E390E00E94CC
:1000BC00EE0060E080E390E00E94DA00482F65E0FB
:1000CC0080E390E00E94BD0080E090E0DC0103C082
:1000DC000196A11DB11D803422E492072FE0A207E6
:1000EC00B105B0F361EA86E390E00E94EE0089E38B
:1000FC0090E00E94EB00682F83E390E00E94EE00FA
:10010C0060E080E390E00E94DA00482F65E080E335
:10011C0090E00E94BD0080E090E0DC0103C00196FD
:10012C00A11DB11D803422E492072FE0A207B10576
:04013C00B0F3B1CF9C
:1001400061110DC0FC01518121E030E002C0220F9D
:10015000331F4A95E2F720952523218308956130C6
:1001600059F4FC01518121E030E002C0220F331F1D
:0A0170004A95E2F7252B218308953C
:10017A00413061F4FC01428121E030E002C0220FEB
:10018A00331F6A95E2F7242B2283089541110CC08C
:10019A00FC01428121E030E002C0220F331F6A9540
:0A01AA00E2F7209524232283089534
:1001B400683050F4FC01808190E002C095958795E9
:0C01C4006A95E2F78170089580E00895CC
:0601D000FC0161830895AB
:0601D600FC018081089588
:0601DC00FC01628308959E
:0401E2000C94000079
:00000001FF
